:020000040800F2
:10000000E04A00209901000821340008392900083D
:1000100009330008BF1000080D4E00080000000062
:1000200000000000000000000000000001010008C6
:100030000311000800000000450100084D450008BC
:10004000B3010008B3010008B3010008B3010008C0
:10005000B3010008B3010008B3010008B3010008B0
:10006000B3010008B3010008B3010008B3010008A0
:10007000B3010008C1100008B3010008CD1000084A
:10008000B3010008B3010008B3010008B301000880
:10009000B3010008B3010008B3010008B301000870
:1000A000B3010008B3010008B3010008B301000860
:1000B000D9450008E5450008F1450008B3010008EE
:1000C000B3010008B3010008B3010008B301000840
:1000D000B3010008954C0008B3010008AD4C0008BE
:1000E000B3010008B3010008B3010008DFF80CD029
:1000F00000F06AFD00480047D15E0008E04A002099
:10010000224B19680868B0E8F00F80F30988BFF344
:100110006F8F4FF0000080F311884EF00D0E704786
:100120000000000006480068006880F3088862B696
:1001300061B6BFF34F8FBFF36F8F00DF00BF00BF0B
:1001400008ED00E0EFF30980BFF36F8F0F4B1A68E3
:1001500020E9F00F106008B54FF0500080F31188CF
:10016000BFF34F8FBFF36F8F06F098FE4FF0000084
:1001700080F31188BDE8084019680868B0E8F00FFE
:1001800080F30988BFF36F8F704700BF1400002011
:10019000EFF3058070470000064880470648004797
:1001A000FEE7FEE7FEE7FEE7FEE7FEE7FEE7FEE727
:1001B000FEE7FEE7D7450008ED000008202A04DB33
:1001C000203A21FA02F00021704721FA02F3D040D0
:1001D000C2F12002914008431946704740EA0103EA
:1001E0009B0703D009E008C9121F08C0042AFAD2ED
:1001F00003E011F8013B00F8013B521EF9D27047B1
:10020000D2B201E000F8012B491EFBD27047002258
:10021000F6E710B513460A4604461946FFF7F0FF05
:10022000204610BD421C10F8011B0029FBD1801A8A
:10023000704710B5002200E0521C835C8C5CA34226
:1002400001D1002BF8D1D8B2E1B2401A10BD30B5BF
:1002500004460020034600E05B1C934203D2E05CAE
:10026000CD5C401BF8D030BD70B50F4D00B928688B
:10027000002412E00A4602E09E4203D0521C13788A
:10028000002BF9D1DAB2224305D02BB124B10021E1
:1002900000F8011B04E00446401C0678002EE9D15A
:1002A0002860204670BD0000BC00002070B50646E6
:1002B00004F03AFF046805460A220021304600F0A7
:1002C000C9FA2C6070BDF0B480EA0102D40F42007C
:1002D000B2EB410F02D20246084611464A0042D014
:1002E000C30DDDB2C1F3C752AD1A202D35DAC1F30B
:1002F000160141F4000204B15242C5F1200602FA8F
:1003000006F12A411044B3EBD05F23D0C4B1012DD4
:10031000A0EBC35009DCF0BC4FF0004202EAC3522C
:10032000DBB200F5000000F0D6BA400000F18070AA
:1003300000EBC350A0F1807040EAD170490009E0A1
:10034000490841EAC071A0EBC35000F50000400825
:1003500000EBC350F0BC00F0B5BA6142012202EBE1
:100360004101001BF6E7F0BC704781F00041AAE7AD
:1003700080F00040A7E780EA010210B502F00043D8
:10038000400022D04A001FD0010E01EB1261C0F3E1
:100390005600C2F3560240F4000042F40002A0FBF3
:1003A000022000047F39140400D0401C50EA12409F
:1003B00001D44000491EC2B20C0604EBD010401C10
:1003C0004008802A02D003E0002010BD20F0010088
:1003D000002900DA0020184310BD30B480EA010281
:1003E00002F0004530F0004221F0004013D090B1FF
:1003F000C30DD40DC2F31601C0F31600E41A41F484
:10040000000140F400027D34914201D3641C00E0FD
:100410004900002C02DA30BC002070474FF4000085
:100420000023914201D3891A034340084FEA410156
:10043000F7D151B1914202D14FF0004105E002D213
:100440004FF0010101E06FF0010103EBC4502844BB
:1004500030BC00F037BA420005D0C0F3C752524258
:10046000914201DC0020704700EBC15070472DE93C
:10047000FE4F81EA030404F0004421F0004100949F
:100480004FF0000B23F0004350EA01045ED052EA23
:1004900003045BD0C3F30A54C1F30A552C44A4F2FD
:1004A000F3340194A0FB0254C1F3130141F4801111
:1004B000C3F3130343F4801301FB024400FB034E18
:1004C000840A970A44EA815447EA8357A4FB0768E1
:1004D00002958D0A05FB07854FEA932C04FB0C540B
:1004E0002705029D4FEA065847EA1637B5EB08057F
:1004F0006EEB070C870E920E47EA811742EA8312D1
:10050000A7FB0201B6EB0B0164EB00042B0D43EAE1
:100510000C335E1844EB1C50DA465146E7FB0201EF
:10052000C5F313044FEA0B3343EA14534FEA043282
:10053000019C43EA0603A4F10C040294009CCDE95B
:1005400000B400F005FA03B0BDE8F08F00200146CA
:10055000F9E72DE9F04D81EA030404F0004B21F0A6
:10056000004514464FF0000A23F0004150EA05020E
:1005700020D054EA01021DD0C5F30A570246C5F344
:100580001303C1F31300C1F30A5640F4801543F47A
:100590008013A7EB0608101BD64608F2FD3873EB54
:1005A000050002D308F1010801E092185B41B8F19F
:1005B000000F03DA00200146BDE8F08D00204FF463
:1005C0008011064684460EE0171B73EB050705D322
:1005D000121B63EB050306434CEA010C49084FEA82
:1005E000300092185B4150EA0107EDD152EA030056
:1005F00012D082EA040083EA0501084305D0101BEB
:10060000AB4106D20122002306E000224FF0004356
:1006100002E06FF0010253101AEB06004CEB085198
:1006200010EB0A0041EB0B01BDE8F04D00F081B981
:10063000C10F80EAE0700844CA079623002100F049
:100640004AB996230022114600F045B90EB5C10FF4
:1006500080EAE0700844CA07002140F233438DE885
:100660000E000A460B4600F073F903B000BD00F01F
:10067000004220F00040C10DC0F3160040F400001D
:100680007F2901DA00207047962903DCC1F1960129
:10069000C84001E096398840002AF4D040427047B3
:1006A00000F0004230F000400AD0C10D01F5607149
:1006B000C0F3160042EA0151C208400711437047D7
:1006C00000200146704701F0004330B421F00041A2
:1006D00050EA010206D00A0DA2F56072C1F31301BF
:1006E000002A02DC30BC00207047440F44EAC104F9
:1006F000C100E01830BC00EBC25000F0E3B80000CD
:10070000002801DBC0F10040002901DBC1F10041FC
:1007100081427047002801DBC0F10040002901DB65
:10072000C1F100418842704730B50B4601460020B8
:100730002022012409E021FA02F59D4205D303FAA3
:1007400002F5491B04FA02F52844151EA2F1010224
:10075000F1DC30BD2DE9F05F0546002092469B4656
:1007600088460646814640241BE0284641464746C7
:100770002246FFF723FD53465A46C01A914110D333
:1007800011461846224600F031FA2D1A67EB01088F
:100790004F4622460120002100F028FA17EB0009FD
:1007A0004E41201EA4F10104DFDC484631462A46B2
:1007B0004346BDE8F09F00000FB4002300B589B0A8
:1007C0000CA900910B996FF00042CB601E4B069371
:1007D0001E4B07930423CDE901321D4A08920246BD
:1007E0006B46002000F0C6FA09B05DF814FB70B546
:1007F00086B006464FF0FF300091CDE901010020A0
:1008000015460C4604903246694604A8FFF7D4FF0B
:1008100002460498211825B108B1084600E0204698
:100820002860049800280DD0002A02DD0098884234
:1008300008D0081B0094CDE901043246694604A89B
:10084000FFF7BAFF06B070BDAD0F0008CB0F000870
:10085000390C00082DE9F04791460F4680460446C2
:10086000002614F8015B2DB100F0E2F90068405D4C
:10087000C007F6D12B2D02D02D2D18D0641E4A466C
:100880003946204600F0B2FB27B13968A14201D1B8
:10089000C7F8008071054FF002040BD540420028D4
:1008A00003DD04F041FC0460A007BDE8F08746F4D6
:1008B0008066E4E70028F8DA04F036FC04606FF0A4
:1008C0000040F2E70029A8BF7047401C490008BF5C
:1008D00020F00100704710B4B0FA80FC00FA0CF070
:1008E00050EA010404BF10BC704749B1CCF12004A8
:1008F00021FA04F411FA0CF118BF01212143084335
:10090000A3EB0C01CB1D4FEA00614FEA102042BF60
:10091000002010BC704700EBC35010440029A4BF56
:1009200010BC7047401C490008BF20F0010010BCFB
:10093000704710B5141E73F1000408DA401C41F131
:10094000000192185B411A4301D120F0010010BD53
:100950002DE9F04D92469B4611B1B1FA81F202E0C9
:10096000B0FA80F22032904600F040F904460F467B
:1009700040EA0A0041EA0B0153465A46084313D0A5
:10098000114653EA010019D0C8F140025046FFF762
:1009900015FC05460E4650465946424600F026F9DB
:1009A000084305D0012004E020463946BDE8F08D1B
:1009B0000020054346EAE0762C4337430A98630556
:1009C000E40AA0EB08000022FD0A44EA47540A307A
:1009D00002D500200146E9E7010510196941DDE96A
:1009E000084500196941BDE8F04DA2E72DE9FE4F29
:1009F000804681EA0300C00F0C46009021F00041C0
:100A000023F00045B8EB0200A94105D2404621463B
:100A100090461C460B46024623F00040104347D048
:100A2000270DC7F30A00C3F30A510290401A019040
:100A300040286BDAC3F3130040F4801B0098924601
:100A400020B10023D2EB030A63EB0B0B019859464C
:100A5000C0F14002504600F0C9F806460D46504627
:100A60005946019A00F0D1F810EB080061410024CA
:100A700087EA115284EAE7731A4340D0009A62B3BE
:100A8000019A012A4FEA075215DC001B61EB0201B3
:100A90004FF0004202EA0752CDE90042001C41F546
:100AA000801132462B46FFF753FF03B0BDE8F08FAD
:100AB00040462146F9E7001B61EB0201001C41F5AD
:100AC000801300185B412018A2F5001747EB0301C3
:100AD00040EAD570B6196D4111E06D084FEA36064F
:100AE00045EAC0754FEA0752001B61EB0201001C8A
:100AF00041F5801149084FEA300000195141324652
:100B00002B4603B0BDE8F04FFFF713BF009801225A
:100B100040000023D0EB020263EBE0730098214613
:100B20004FEAE074B8EB000061EB0401E9E783F001
:100B300000435BE781F0004158E770B521F00043C6
:100B400003430CD0C1F30A550024D5EB040564EB34
:100B50000403D617AD1AB34102DB0020014670BD75
:100B6000201841EB025170BDC1F30A52C1F31301C9
:100B700040F2FF3341F480119A4202DA002001462C
:100B8000704740F233439A42A2F2334202DC5242AF
:100B9000FFF714BB00F02AB830B5041E71F1000451
:100BA00004DB4FF00044404264EB0101141E73F17A
:100BB000000405DB1C464FF00043524263EB040384
:100BC000994208BF904230BD064C074D06E0E068F0
:100BD00040F0010394E8070098471034AC42F6D384
:100BE000FFF788FA2483000844830008202A04DBE6
:100BF000203A00FA02F1002070479140C2F1200330
:100C000020FA03F3194390407047202A06DBCB17E4
:100C1000203A41FA02F043EAE07306E041FA02F3B7
:100C2000D040C2F1200291400843194670470000AD
:100C3000004870471483000810B50446FFF7F8FF1A
:100C40000068005D00F0010010BD00002DE9FF4FBD
:100C5000087883B09946FF2805D0491C2D2804D078
:100C60000024002008E000200BE00124F9E700EB5D
:100C7000800003EB4000491C0B78FF2BF7D104B137
:100C8000404200230293147819461D462D2C01D0B2
:100C90002B2C04D1521C2D2C13D000240294AA46D4
:100CA0001478FF2C0FD00A25A3FB057801FB0581E2
:100CB0004FF0000C03FB0C11521CE3194AEB01012D
:100CC000EEE70124EAE7814453EA010002D019F576
:100CD000C87F06DA03980021C0E9001107B0BDE81B
:100CE000F08F0025AE4E2F46DFF8B882184600F090
:100CF000DAF9CDE90001B9F1000002DAC9F1000426
:100D000000E004460023A74A1AEB030B42EB045A07
:100D100012E0E00707D02A46334638464146FFF73F
:100D2000A6FB074688462A46334610461946FFF773
:100D30009EFB05460E466410002CEAD1DDE9000159
:100D4000B9F1000F5A46534606DAFFF702FC3A465D
:100D50004346FFF7FEFB05E0FFF789FB3A464346B3
:100D6000FFF785FB029A0AB181F00041039AC2E9BC
:100D70000001B3E72DE9FF4F1F468DB0D7E90146CB
:100D80004FF0FF382E2045464FF000090B90B9690F
:100D90006D1C0E988847396A824688470028F6D12C
:100DA000BAF1FF3F0AD024F4D064002E11DDBAF16D
:100DB0002B0F08D0BAF12D0F0BD102E0404611B035
:100DC0008DE744F48064B9696D1C0E9888478246AB
:100DD000761E6946600501D52D2000E02B208DF898
:100DE000000001F1010B0DF1200809E0B9696D1C4B
:100DF0000E98884782460F9844F40074761E05606A
:100E0000002E02DDBAF1300FF0D00B998A453ED1A9
:100E100044F0800406E00F99681CA9F1010944F42C
:100E200000740860B9696D1C761E0E98884782466A
:100E30003028F0D02BE00B998A4505D1200603D449
:100E400044F08004761E18E0504604F0B1FA08B36E
:100E50000DF11301761E44F400748B4508D2AAF1FB
:100E600030000BF8010B200607D5A9F1010003E0C3
:100E7000200602D409F101008146A00502D50F9990
:100E8000681C0860B9696D1C0E9888478246002E60
:100E9000D1DC53E0002E51DDBAF1650F02D0BAF17A
:100EA000450F4BD1A00549D5B9696D1C24F4407498
:100EB000761E0E9888478246002E0CDD2B2804D023
:100EC000BAF12D0F07D144F48074B9696D1C0E98E6
:100ED00088478246761EE00501D52D2100E02B21B2
:100EE00008F8011BCDF82C8021E00DF12901761EB8
:100EF00044F4007488450CD2AAF1300010F0FF00D1
:100F000088F8000002D10B99884509D908F1010839
:100F100006E0E00501D5244801E042F20F70814669
:100F2000B9696D1C0E98884782460F980560002E9F
:100F300004DD504604F03CFA0028D6D1F9690E9839
:100F40008847FF208BF8000088F8000000200690FA
:100F500007904B466A4608A906A8FFF777FEA0054A
:100F600002D46FF001002AE714F0240F0AD0E00742
:100F700014D1DDE906123868031D3B600068C0E942
:100F800000120BE0DDE90601FFF79DFB0146E007DB
:100F900004D13868021D3A600068016028460EE7F7
:100FA000000014400000F03FF1D8FFFF426842B15A
:100FB000016811F8013B23B1521EC0E90012184626
:100FC00070470121C160881E704742685AB1C368EA
:100FD000016843B983688B4205D0491E521CC0E9A1
:100FE0000012002070474FF0FF3070472DE9F05F8E
:100FF00082460078002715468B460AF10104B9465F
:10100000302801D09DB113E014F8010B0127782896
:1010100003D0582801D045B10AE00DB1102D07D1F9
:101020000027102514F8010B02E0082500E00A252E
:101030000026B0460EE005FB080005FB06F101277F
:1010400001EB10461FFA80F8B6F5803F00D3B94691
:1010500014F8010B294600F018F80028EBDABBF170
:10106000000F05D00FB1641E00E05446CBF80040DD
:10107000B9F1000F06D004F057F802210160C81E34
:10108000BDE8F09F48EA0640FAE73A2800D2303837
:1010900020F02002412A01D3A2F13700884201D377
:1010A0004FF0FF3070470EB540F2334202920022FB
:1010B000CDE900221346FFF74BFC03B000BDFEE76D
:1010C000014800F091B80000D4020020014800F06F
:1010D0008BB800009002002030B590F840500124F9
:1010E000AC40C56B6C60046863604368102B036898
:1010F00003D099600068C26030BD9A600068C1602A
:1011000030BD704772B6FEE710B590F8211000228E
:10111000022905D00421816380F82020012010BD20
:1011200001680B6823F00E030B6001680B6823F065
:1011300001030B6090F84030C46B012101FA03F306
:10114000636080F8211080F82020104610BD000058
:1011500010B590F821100024022903D004218163E6
:1011600001243DE001680A6822F00E020A6001686D
:101170000A6822F001020A601A4A0168914201D10C
:10118000012121E0174A1432914201D110211BE0C4
:10119000144A2832914201D1891515E0114A3C3296
:1011A000914201D189140FE00E4A5032914202D18E
:1011B0004FF4803108E00B4A6432914202D14FF47F
:1011C000801101E04FF08071064A083A5160012118
:1011D00080F82110002180F82010416B01B1884770
:1011E000204610BD080002402DE9F05FC16B0C687D
:1011F00001680B68D0F840C0042202FA0CF2494D95
:10120000DFF824A1494E4A4FDFF828B1DFF828E182
:1012100022422CD05A072AD50A68920603D40A68BB
:1012200022F004020A600168A94201D1042219E0F7
:10123000514501D1402215E0B14202D14FF4806204
:1012400010E0B94202D14FF480420BE0594502D17F
:101250004FF4802206E0714502D14FF4800201E094
:101260004FF080622F4908394A60C16A3BE04FF075
:10127000020808FA0CF818EA040F4FF000094FF0C2
:10128000010235D05FEA837832D50B689B0605D41E
:101290000B6823F00A030B6080F821200168A94243
:1012A00001D1022219E0514501D1202215E0B142BD
:1012B00002D14FF4007210E0B94202D14FF4005253
:1012C0000BE0594502D14FF4003206E0714502D1DE
:1012D0004FF4001201E04FF00072124908394A60E1
:1012E00080F82090816A00291AD0BDE8F05F084795
:1012F000082505FA0CF5254212D01B0710D50B68FE
:1013000023F00E030B6090F84010C36B02FA01F15A
:101310005960826380F8212080F82090016BE2E719
:10132000BDE8F09F080002401C000240300002406F
:1013300044000240580002406C00024030B528B31F
:1013400008C8134914221944B1FBF2F18900C163A2
:1013500010498163022141771A6843F6F0718A438C
:10136000D0E900142143D0E902452C43214304690C
:1013700021434469214384692143114319600021B9
:101380004163012242770177084630BD012030BD1C
:10139000F8FFFDBF0000024070B5044690F8200041
:1013A000002501280CD0012084F8200094F8216049
:1013B0000020012E06D084F820000225284670BDAA
:1013C000022070BD022684F82160A06320680668B0
:1013D00026F0010606602046FFF77EFEE06A002840
:1013E0002068016802D041F00E0106E021F00401FE
:1013F00001602068016841F00A010160206801680D
:1014000041F001010160D9E770B5044600F010F920
:101410000546601C02D004480078044400F008F936
:10142000401BA042FAD370BD040000202DE9F84F04
:10143000DFF8B8910024A9F1040B23460F2709F126
:10144000040AABF1040EC9E00125A5402A40AA42D6
:101450007DD1674ED1F804C0ACEB0608B44532D05C
:1014600014DCBCF1030F3AD009DCBCF1000F2AD028
:10147000BCF1010F1CD0BCF1020F31D11DE0BCF159
:10148000110F17D0BCF1120F2AD119E0B8F5881F3F
:1014900019D006DCB8F5803F15D0B8F5801F1FD1F4
:1014A00011E0B8F5001F0ED0B8F5041F18D10AE0FE
:1014B000CB6815E0CB681B1D12E0CB6808330FE04A
:1014C000CB680C330CE08B682BB1012B4FF0080379
:1014D00003D0456104E0042302E0056100E000233D
:1014E000FF2A01D8064601E000F104064FEA840510
:1014F00001D9A5F12005D6F8008007FA05FC28EAF5
:101500000C0803FA05F548EA0508C6F800804D689E
:10151000ED0062D5374DAE6946F00106AE61AD69AA
:1015200024F0030605F001050095334D06EB050C8C
:10153000DCF80850A607360F07FA06F825EA080572
:10154000DFF8B880404503D14FF0000817E044E0D1
:10155000DFF8AC80404502D14FF001080FE0DFF822
:10156000A480404502D14FF0020808E0DFF89880DF
:10157000404502D14FF0030801E04FF0040808FA9B
:1015800006F848EA0508CCF808804D68D9F80060EC
:10159000ED024D4601D5164300E096432E604D689E
:1015A000DAF80060AD02554601D5164300E09643D7
:1015B0002E604D68DBF80060AD035D4601D5164333
:1015C00000E096432E604D68DEF80060ED0375463E
:1015D00001D5164300E096432E60641C0D682A4630
:1015E000E5407FF431AFBDE8F88F0000080401400A
:1015F00000001110001002400000014000080140EE
:10160000000C0140001001400014014080680840B7
:1016100000D001207047C26821EA02030A4043EA71
:101620000241016170470AB1016170470904FBE79B
:10163000014880687047000004000020024881686B
:10164000027811448160704704000020074810B5FB
:10165000016841F010010160032000F0A7F80F209D
:1016600000F006F800F050F8002010BD0020024005
:1016700030B505461F4887B0C16941F00201C1611C
:10168000C06906A900F00200009001A800F036F938
:101690000498B0B100F052F940001749174AB0FB66
:1016A000F1F11748491E0260416040F2E732002123
:1016B000C0E903218160816100F076FB040003D062
:1016C00015E000F03BF9E8E70D4800F09BFB040053
:1016D0000DD11D2000F03CF8102D07D20022294624
:1016E0001D2000F043F80748056000E0012407B022
:1016F000204630BD0010024040420F000004004070
:1017000018030020080000200F4808B5816941F047
:1017100001018161816901F001010091C16941F01C
:101720008051C161C069002200F0805000900F21FB
:10173000901E00F01BF80548416821F0E06141F07F
:101740000071416008BD000000100240000001402F
:10175000002809DB00F01F020121914040098000B0
:1017600000F1E020C0F8001170470000F0B40E4B0B
:101770001B680C46C3F30223C3F10705042D00D9EF
:101780000425191D072901D2002300E0DB1E0126D4
:1017900006FA05F1491E214099409E40761E1640EA
:1017A0003143F0BC03F0B0BC0CED00E0064900F0A2
:1017B000070208684FF6FF03184040EA0220034A78
:1017C00010430860704700000CED00E00000FA05CF
:1017D0002DE9F0470F46050061D0434E306800F018
:1017E0000700B84209D2306820F007003843306063
:1017F000306800F00700B84251D128683B4C81079F
:1018000012D5400703D5606840F4E0606060287836
:10181000000703D5606840F4605060606068A968A4
:1018200020F0F000084360602878C00728D068687E
:10183000012810D02168022810D0890700292EDA4B
:10184000616821F0030101436160FFF7F1FE80460A
:1018500041F288390DE021688903EFE78901EDE75E
:10186000FFF7E6FEA0EB0801494502D90320BDE8D9
:10187000F0876068696800F00C00B0EB810FEFD171
:10188000306800F00700B8420BD9306820F007003C
:1018900038433060306800F00700B84201D00120C2
:1018A000E5E72878400705D56068E96820F4E0603E
:1018B000084360602878000706D56068296920F42D
:1018C000605040EAC100606000F058F86168084A62
:1018D000C1F30311515CC84006490860064800681E
:1018E000FFF7C6FE0020C2E70020024000100240C1
:1018F000A67B000810000020080000200F220260D4
:101900000C4A536803F003034360536803F0F00389
:101910008360536803F4E063C36052684FF4E0638C
:1019200003EAD20202610448006800F00700086080
:1019300070470000001002400020024004480549A2
:1019400000684968044AC1F30221515CC8407047ED
:101950001000002000100240B67B00080448054932
:1019600000684968044AC1F3C221515CC84070470D
:101970001000002000100240B67B00080E4A51689B
:101980000E4801F00C03042B11D0082B0FD10C488A
:10199000C1F38343C903C05C0AD55168084AC1F347
:1019A0004041921E515C054A5043B0FBF1F0704734
:1019B00004494843704700000010024000127A00BA
:1019C000967B000800093D002DE9F84F040070D017
:1019D0002078C04DC00749D06868C0F38100012855
:1019E00007D06868C0F38100022809D16868C00385
:1019F00006D52868800339D560680028E7D035E02F
:101A00006068B0F5803F0BD010B1B0F5A02F11D0B9
:101A1000286820F480302860286820F4802002E0C4
:101A2000286840F480302860606890B1FFF700FEBD
:101A300006460AE0286840F480202860F0E700BFEE
:101A4000FFF7F6FD801B642873D828688003F7D55C
:101A50000CE0FFF7EDFD064605E000BFFFF7E8FDEF
:101A6000801B6428F0D828688003F7D420789A4E29
:101A700080074FF001094FF0000839D5686810F071
:101A80000C0F07D06868C0F38100022809D168688C
:101A9000C00306D42868800714D52069012808D11E
:101AA00010E02069B0B1C6F80090FFF7C1FD07460D
:101AB00005E00AE1FFF7BCFDC01B0228C4D8286876
:101AC0008007F7D52868616920F0F80040EAC10076
:101AD00028600DE0C6F80080FFF7AAFD074604E085
:101AE000FFF7A6FDC01B022823D828688007F7D47B
:101AF000207800072CD57948A169D9B1C0F80090A9
:101B0000FFF796FD074604E0FFF792FDC01B022891
:101B10000FD8686A8007F7D571484FF4FA5100680A
:101B2000B0FBF1F0009000BF0098411E0091FAD286
:101B30000EE080E0C0F80080FFF77AFD074604E081
:101B4000FFF776FDC01B022875D8686A8007F7D4B6
:101B50002078400760D5E8690027C00008D4E8690C
:101B600040F08050E861E869012700F08050009063
:101B70005C480168C90513D40168834641F480714B
:101B80000160FFF755FD824606E000BFFFF750FDFC
:101B9000A0EB0A0064284ED8DBF80000C005F5D59C
:101BA000E06801280AD008B1052813D0286A20F07F
:101BB00001002862286A20F0040002E0286A40F050
:101BC00001002862E06841F2883B98B1FFF730FDE0
:101BD00082460BE0286A40F004002862EEE700BF6E
:101BE000FFF726FDA0EB0A0159455AD8286A80075D
:101BF000F6D50CE0FFF71CFD824605E0FFF718FD67
:101C0000A0EB0A0159454CD8286A8007F6D41FB1C9
:101C1000E86920F08050E861E06988B36968C1F341
:101C20008101022944D00228C6F8608004D0FFF761
:101C3000FFFC044638E034E0FFF7FAFC074604E016
:101C4000FFF7F6FCC01B02282BD828688001F7D4C8
:101C5000206AB0F5803F05D16868A16820F40030A3
:101C600008436860D4E908010843696821F47411E5
:101C700008436860C6F86090FFF7DAFC044606E0A7
:101C800025E000BFFFF7D4FC001B022809D8286814
:101C90008001F7D51BE000BFFFF7CAFC001B02283C
:101CA00002D90320BDE8F88F28688001F4D40EE043
:101CB0000128F7D06868226A00F48031914204D18B
:101CC000616A00F47010884201D00120EAE7002028
:101CD000E8E7000000100240000042428004424257
:101CE00010000020007000407047704710B590F859
:101CF0003C20012A22D0012280F83C20CA688C684E
:101D000022F4407222434C6822F4806222430C6821
:101D100022F4006222430C6922F4805222434C696F
:101D200022F400522243C969002322F480420A436C
:101D300001684A6480F83C30002010BD022010BDCC
:101D400070B590F83C20012A26D0012480F83C4050
:101D5000022280F83D2003685A689D6822F07006D0
:101D60000A6832435A600D4B02689A4208D0B2F1B9
:101D7000804F05D00A4B9A4202D00A4B9A4204D1B6
:101D8000496825F080031943916080F83D400021A7
:101D900080F83C10084670BD022070BD002C014048
:101DA000000400400008004010B5040003D094F87F
:101DB0003D0010B107E0012010BD002084F83C0078
:101DC000204600F01EF8022084F83D00211D206806
:101DD00002F014FC012084F8460084F83E0084F8E8
:101DE0003F0084F8400084F8410084F8420084F801
:101DF000430084F8440084F8450084F83D00002046
:101E000010BD704790F83D10012901D001207047A6
:101E1000022180F83D100168CA6842F00102CA60E0
:101E200000680B49884208D0B0F1804F05D00949BD
:101E3000884202D00849884204D1816801F0070134
:101E4000062903D0016841F00101016000207047BC
:101E5000002C014000040040000800402DE9F04142
:101E60000D46040003D094F83D0018B108E00120AD
:101E7000BDE8F081002084F83C00204600F040F8E6
:101E8000022084F83D002068816844F207029143F3
:101E90008160211D206802F0B1FB22689068916981
:101EA000166A2B68AF69034340F20330814341EA6D
:101EB0000721A868EF6908434FF6FC418843E968A9
:101EC00040EA0720014328692F6A000140EA0730F1
:101ED000084369686D6926F0220646EA051529431C
:101EE00093602268906154F8460B0162012004F867
:101EF0001F09E0752076E0762077A0750020B7E70F
:101F000000B585B000210091019102910391016813
:101F10002348B1F1804F25D0224A914220D1C16996
:101F200041F00401C161C16901F0040104918169BA
:101F300041F0080181618069694600F00800049061
:101F4000C0200090012002901748FFF76FFA00228E
:101F500005211E20FFF70AFC5FF01E00FFF7F8FBCB
:101F600005B000BDC16941F00101C161C16901F065
:101F700001010491816941F0040181618069694630
:101F800000F004000490032000900848FFF74EFA88
:101F9000002205211C20FFF7E9FB1C20DEE70000E2
:101FA0000010024000080040000C01400008014001
:101FB00070B590F83E60044690F83F5090F842307B
:101FC00090F84320022021B104290ED0012E1BD10C
:101FD00014E0012E18D1012B16D184F83E0084F8AC
:101FE000420001220021206820E0012D0CD1012AAD
:101FF0000AD184F83F0084F8430014E0012D03D196
:10200000012B01D1012A01D0012070BD84F83E00CE
:1020100084F83F0084F8420084F843000122002144
:10202000206802F021FB01220421206802F01CFB41
:102030002068016841F001010160002070BD704717
:1020400070B50446006801694FF00005C94389076F
:1020500015D4C168C943890711D4E91E0161012063
:102060002077206880698007204602D0FFF7E7FFCD
:1020700004E000F0BFF8204600F064F925772068FE
:102080000169C943490717D4C168C943490713D433
:102090006FF004010161022020772068806910F44C
:1020A000407F204602D0FFF7CAFF04E000F0A2F80C
:1020B000204600F047F9257720680169C9430907E0
:1020C00016D4C168C943090712D46FF00801016131
:1020D000042020772068C0698007204602D0FFF7DF
:1020E000AEFF04E000F086F8204600F02BF92577DB
:1020F00020680169C943C90617D4C168C943C90624
:1021000013D46FF010010161082020772068C069A6
:1021100010F4407F204602D0FFF791FF04E000F06A
:1021200069F8204600F00EF9257720680169C94357
:10213000C90708D1C168C943C90704D1891E016113
:10214000204600F04FF920680169C943090609D407
:10215000C168C943090605D46FF0800101612046BA
:10216000FFF7C2FD20680169C943490609D4C16867
:10217000C943490605D46FF040010161204600F0D3
:102180003BF920680169C94389060BD4C168C9437A
:10219000890607D46FF0200101612046BDE8704038
:1021A000FFF7A3BD70BD000000B585B00021009110
:1021B00001910291039100680B49884212D10B48AA
:1021C000816941F0040181618069694600F0040081
:1021D00004904FF410600090022001900390044896
:1021E000FFF724F905B000BD002C014000100240AB
:1021F00000080140704770B5044690F83C00002686
:102200000D4601280FD0012084F83C006AB1042A51
:102210001DD0082A2FD00C2A3FD00126002084F898
:102220003C00304670BD022070BD206802F02AFAE2
:102230002068816941F0080181612068816921F08D
:1022400004018161206881692A69114311E02068D5
:1022500002F040FA2068816941F4006181612068E0
:10226000816921F480618161206881692A6941EA7C
:1022700002218161D2E7206802F058FA2068C16922
:1022800041F00801C1612068C16921F00401C16108
:102290002068C1692A69114311E0206802F072FACE
:1022A0002068C16941F40061C1612068C16921F4FD
:1022B0008061C1612068C1692A6941EA0221C16166
:1022C000ACE710B5040003D094F83D0010B107E06E
:1022D000012010BD002084F83C00204600F01EF8CC
:1022E000022084F83D00211D206802F087F90120BA
:1022F00084F8460084F83E0084F83F0084F84000EB
:1023000084F8410084F8420084F8430084F84400D3
:1023100084F8450084F83D00002010BD08B5006831
:102320000649884208D10648816941F4006181610B
:10233000806900F40060009008BD0000002C01409E
:10234000001002407047000010B50446022249B157
:1023500004290ED0082913D094F84100012816D082
:10236000012010BD94F83E000128F9D184F83E20E8
:102370000FE094F83F000128F2D184F83F2008E0F4
:1023800094F840000128EBD184F8402001E084F863
:1023900041200122206802F067F90F492068884235
:1023A00003D1426C42F4004242642068884208D063
:1023B000B0F1804F05D00949884202D008498842CF
:1023C00004D1816801F00701062903D0016841F0BA
:1023D00001010160002010BD002C014000040040FC
:1023E0000008004000680349884201D1FFF726B980
:1023F00070470000000400407047704710B5044665
:102400000068406994F84110C0F3C010212911D12F
:1024100080B12068143050E8001F21F0800140E8AE
:102420000012002AF5D1A06B08B1FEF76DFE204620
:1024300002F0E0FA2068406994F84210C0F380107E
:10244000222911D180B12068143050E8001F21F0FA
:10245000400140E80012002AF5D1E06B08B1FEF718
:1024600053FE204602F09FFA002010BD7047000086
:10247000F8B5016804460868CA684B6910F00F0F88
:102480004FF0000559D003F0010602F4907737436E
:1024900065D0C10705D0D10503D5616C41F00101BC
:1024A0006164410705D5D90703D0616C41F0020191
:1024B0006164810705D5D90703D0616C41F004013F
:1024C0006164010707D502F02001314303D0616C3C
:1024D00041F008016164616C00293AD0800604D59E
:1024E000900602D5204602F093FA20684069616C9C
:1024F000C0F38010090700D460B3204602F053FAFD
:1025000020684069400621D52068143050E8001F3B
:1025100021F0400140E80012002AF5D1E06BA8B19B
:102520006D494163E06BFEF713FE002811D0E06BAC
:10253000416B01B0BDE8F040084783060FD5930614
:102540000DD52046BDE8F84002F062BA2046FFF7FC
:102550008DFFF8BD2046FFF789FF6564F8BD266B47
:102560002023012E7CD1C6067AD5D60678D50868F8
:102570004868009048694FF00206400640D5E16B7C
:10258000086840680004000CE8D0A28D8242E5D9BA
:10259000E085886920282DD020680C3050E8001F85
:1025A00021F4807140E80012002AF5D1206814302F
:1025B00050E8001F21F0010140E80012002AF5D187
:1025C0002068143050E8001F21F0400140E800125C
:1025D000002AF5D184F84230256320680C3050E899
:1025E000001F21F0100140E80012002AF5D1E06B35
:1025F000FEF78AFD6663A08DE18D401A81B22AE064
:10260000A08DE18D401A81B2E08D0028A6D000296E
:10261000A4D022680C3252E8000F20F4907042E8F7
:102620000007002FF5D12068143050E8002F22F069
:10263000010240E80027002FF5D184F842302563DD
:1026400020680C3050E8002F22F0100240E80023F0
:10265000002BF5D166632046FFF7CFFEF8BDFFE7FC
:1026600005062BD5150629D594F841002128F5D16A
:10267000A068B0F5805F01D12069B0B1206A411C2B
:102680002162216800784860E08C401E0004000C44
:10269000E084E3D12068C16821F08001C160206836
:1026A000C16841F04001C160D8E7206A0088C0F3EA
:1026B00008004860206A801C2062E5E74006CDD50E
:1026C0005006CBD5CA68204622F04002CA6084F882
:1026D000413000F030F9C1E7A948000870B50400A6
:1026E00004D094F84100002510B106E0012070BD2F
:1026F00084F84050204600F023F8242084F841005C
:102700002068C16821F40051C160204602F0E2F95E
:102710002068016921F4904101612068416921F03C
:102720002A0141612068C16841F40051C1606564BB
:10273000202084F8410084F842006563002070BDC9
:102740002DE9F04186B00024009401940294039492
:10275000064603684348DFF808C102210322051535
:102760008027634539D1836943F48043836183695A
:1027700003F480430493836943F004038361806915
:10278000DFF8E48000F0040004900802CDE90001C5
:10279000039269464046FEF749FECDE9005469467A
:1027A00040460294FEF742FE314D3048C5E9000430
:1027B000C5E902472C616C61AC612846EC61FEF70B
:1027C000BDFD08B1FEF79EFCF56300220521252022
:1027D0006E62FEF7CBFF25203DE0DFF898C0634531
:1027E0003BD1C36943F48023C361C36903F48023ED
:1027F0000493836943F0080383618069CDE9005144
:1028000000F00800CDE903201B4D69462846FEF77D
:102810000DFEE814CDE90004694628460294FEF74F
:1028200005FE134D114844352838C5E90004C5E9B3
:1028300002472C616C61AC612846EC61FEF77EFDBD
:1028400008B1FEF75FFCF5630022052127206E62C8
:10285000FEF78CFF2720FEF77BFF06B0BDE8F08176
:1028600000380140001002400008014058000240BA
:102870009002002000480040000C014090F84230D7
:10288000202B01D00220704721B11AB1002303632D
:1028900002F07CB901207047704770472DE9F8437A
:1028A000044690F841001F4616460D46202802D0E7
:1028B0000220BDE8F8837DB176B10020606421205C
:1028C00084F84100FEF7B4FEA6848046E684A06842
:1028D000B0F5805F02D003E00120EAE7206910B183
:1028E0002E4600250EE000260CE08021204602F056
:1028F00095F9A0B9AEB116F8010B21684860E08CDB
:10290000401EE084E08C43464FF000020097002810
:10291000EBD14FF04001204602F080F930B10320A6
:10292000C7E735F8020BC0F30800E6E7202084F87B
:1029300041000020BDE77047FEE7000070B50122AE
:102940000B4D940321462846FEF76DFE0122D60367
:1029500031462846FEF767FE002231462846FEF73C
:1029600062FE21462846BDE870400022FEF75BBEAD
:102970000010014070B50A4C012291032046FEF779
:1029800052FE4FF40045002229462046FEF74BFE3A
:1029900029462046BDE870400122FEF744BE0000F3
:1029A0000010014070B50122064D940321462846CF
:1029B000FEF739FE21462846BDE870400022FEF7AA
:1029C00032BE0000001001402DE9F74F044684B0EC
:1029D0004068029001461046FDF7C7FCD4F834A0C9
:1029E0005146FDF7C8FC2168FDF76DFC8346504653
:1029F000216AFDF7C0FC804651460846FDF7BBFC46
:102A0000D4F814904946FDF7B6FCD4E903670546AF
:102A100031463846FDF757FC5146FDF7ACFCA1683E
:102A2000FDF7A6FC2946FDF74EFC4146FDF74BFCA1
:102A3000054651464846FDF79EFC80463146FDF767
:102A400097FC064640463946FDF792FC80465046C4
:102A5000E16AFDF790FC4946FDF735FC82462846C1
:102A6000216BFDF730FC01464FF07E50FDF7B5FCC1
:102A7000074601462846FDF77EFC8146A06139469F
:102A80004046FDF778FCE061009059460598FDF757
:102A90006CFC014601904846FDF76DFC5946FDF778
:102AA00012FC07462060DDE90001FDF764FC029995
:102AB000FDF709FC606029464846FDF75CFC2946A5
:102AC000FDF756FCA06031464846FDF754FC314600
:102AD000FDF74EFCE06029460098FDF74CFC4146AE
:102AE000FDF746FC206131460098FDF744FC514655
:102AF000FDF73EFC606107B03846BDE8F08F00008E
:102B000000B58FB0382205496846FDF767FB3822CB
:102B100069460348FDF762FB0FB000BDB0810008B5
:102B2000A446002070B50E46054681F00044FDF72E
:102B3000F1FD01D2354605E020462946FDF7EAFDC4
:102B400000D22546284670BD884202DC49428842B0
:102B500000DA084670472DE9FF471C46DDE90C897D
:102B600015460E4607002AD0002E28D0002D26D06C
:102B7000002C24D05FEA080021D05FEA09001ED0B3
:102B80000E2269463B2000F037F8BDF8000040BA3D
:102B90003880BDF8020040BA3080BDF8040040BA69
:102BA0002880BDF8080040BA2080BDF80A0040BA6D
:102BB000A8F80000BDF80C0040BAA9F80000BDE874
:102BC000FF8710B501216B2000F048F900216C202F
:102BD00000F044F90421192000F040F903211A20E3
:102BE00000F03CF918211B2000F038F91821BDE84D
:102BF00010401C2000F032B92DE9F04115460E00BE
:102C0000044629D0002D27D000F0D7FBD02000F0BB
:102C1000C1FB00F089FB204600F0BCFB00F084FB08
:102C200000F0CBFBD12000F0B5FB00F07DFB0024D1
:102C30006F1E0BE000F087FB3055BC4201D3012032
:102C400000E0002000F098FB641CE4B2AC42F1D339
:102C5000BDE8F04100F0C0BBBDE8F0818CB06C492C
:102C60000991142104A8FDF7D2FAFFF7AAFF142056
:102C700003F09AFF04F098FD0446804665480B90E7
:102C8000A0F1020B4FF07E500999FDF76EFB0A9000
:102C9000604E0B980A3ECDE900B0B31D321DB11C49
:102CA0003046FFF758FF04F07FFD0546001BFDF797
:102CB000C8FC5949FDF791FB584FB0F5000F7863F8
:102CC00002DA5748786303E05649884200DD7963A9
:102CD000B6F90400FDF7BAFC81468A46B6F9000051
:102CE000FDF7B4FC4A46534603F01CF800224E4B55
:102CF000FDF7BDFB4D4A4E4BFDF72BFCFDF7E3FC0A
:102D00000490B6F90400FDF7A1FC81468A46B6F9A5
:102D10000200FDF79BFC4A46534603F003F80022ED
:102D2000414BFDF7A4FB414A414BFDF712FCFDF777
:102D3000CAFC0590B6F908607042FDF779FC3D4980
:102D4000FDF713FB6FF00E0A5146FDF784FBDFF829
:102D5000E8904946FDF70FFB796BFDF70CFB0899EE
:102D6000FDF7B1FA089008990A98FDF704FB0746A9
:102D700004990998FDF7FFFA3946FDF7A4FA08907F
:102D80003046FDF755FC5146FDF765FB4946FDF71A
:102D9000F2FA2A49FDF7E9FA80F0004207901F484D
:102DA0000499FFF711FE2649FDF7DFFA069019484E
:102DB000142204A90E30FDF711FA224E022300223C
:102DC00004A9706804F0EAF90223002204A9F0685B
:102DD00004F0E4F9A5EB08002C46322814D3A046F1
:102DE0000698FDF75DFC074689460898FDF758FCF4
:102DF00005460E460498FDF753FC8DE8E0020246B6
:102E00000B4611A001F0B8FF052003F0CDFE3FE70F
:102E10008FC2753D1E45002000007A44A446002064
:102E20000AD7A33BCDCC4C3D008066406E861BF09C
:102E3000F9210940000020420000FA44F6281C4015
:102E4000000060408C0000205B706C6F742C256665
:102E50002C25662C25665D0D0A00000070B50D4618
:102E6000044600F0AAFAD02000F094FA00F05CFAD0
:102E7000204600F08FFA00F057FA284600F08AFA50
:102E800000F052FABDE8704000F0A6BA0D4808B54F
:102E9000416941F0010141614069002200F00100F7
:102EA000009005210D20FEF761FC0D20FEF750FC7F
:102EB000002205210F20FEF759FCBDE808400F2035
:102EC000FEF746BC001002407CB5234A002123488F
:102ED00003F0AEF82249002418250860CDE900541B
:102EE00023464FF480721FA1214804F0F7FBCDE97F
:102EF0000054002380221FA1224804F0EFFBCDE9FB
:102F000000544FF4A076002332461FA1244804F059
:102F1000E5FB2920CDE900040023324621A1254804
:102F200004F0DCFBCDE900540023802222A12848D4
:102F300004F0D4FB2820CDE900040023C02225A101
:102F40002A4804F0CBFBCDE900540023C02228A17D
:102F50002D4804F0C3FB7CBD707B00082D450008A4
:102F6000000000204F4C45445F5461736B0000002B
:102F7000F53A0008556172745072696E745F54615D
:102F8000736B0000D54D000853657269616C446134
:102F9000746150726F636573735F5461736B00008B
:102FA000394200084D5055363035305F5461736BEF
:102FB000000000005D2C000856656C6F6369747931
:102FC00043756C63756C6174655F5461736B00006D
:102FD000454E0008504456656374416E6450495331
:102FE0006F6565645F5461736B000000813C00088D
:102FF0004E524632344C30315F52656365697665B6
:103000005F5461736B000000F13500082DE9F04357
:1030100085B0002439480094019402940394816996
:1030200041F010018161816901F010010491816911
:1030300041F020018161816901F0200104918169E1
:1030400041F004018161816901F004010491816909
:1030500041F0080181618069294F00F008004FF4B8
:1030600060450490002229463846FEF7DCFADFF876
:103070009480002242F20B314046FEF7D4FADFF88A
:1030800088900022B0214846FEF7CDFA0122402167
:103090004846FEF7C8FA0095022601250396CDE9B9
:1030A000015469463846FEF7C1F942F20B00CDE9FA
:1030B0000005CDE9024669464046FEF7B7F94FF4F0
:1030C0004070009001AA112082E8610069464046E4
:1030D000FEF7ACF9F020CDE900050320CDE9024070
:1030E00069464846FEF7A2F90C208DE83100694692
:1030F0004846FEF79BF905B0BDE8F083001002409A
:1031000000100140000C01400008014010B592B0D1
:1031100000240F941C2168461094FDF778F82021B4
:1031200007A8FDF774F82548234901604721C0E945
:10313000011440F2E731C0E903148021C0E90541E0
:10314000FFF7BFF808B1FDF7DDFF0F940FA91B488B
:103150001094FEF7F5FD08B1FDF7D4FF6020CDE92E
:1031600000040294039404940594002269461348D1
:103170000694FFF740F808B1FDF7C4FF0C2269463A
:103180000E48FFF738F808B1FDF7BCFF0794089424
:1031900009944FF400500A94CDE90B4007A9074861
:1031A0000E94FEF7A3FD08B1FDF7ACFF0348FEF750
:1031B000FBFF12B010BD0000002C014028010020D0
:1031C00010B58CB024216846FDF721F8002416487C
:1031D00009944FF080410A94C0E900144FF6FF7142
:1031E000C0E90241046184610320CDE900040120AB
:1031F000CDE9020406210491CDE90540CDE907415E
:1032000069460948FEF72AFE08B1FDF77BFF0994DD
:1032100009A905480A94FEF793FD002801D0FDF79F
:1032200071FF0CB010BD00007001002010B58CB013
:1032300024216846FCF7EBFF002416480994144942
:103240000A94C0E900144FF6FF71C0E9024104611D
:1032500084610320CDE900040120CDE902040621A8
:103260000491CDE90540CDE9074169460948FEF7DB
:10327000F5FD08B1FDF746FF099409A905480A9430
:10328000FEF75EFD002801D0FDF73CFF0CB010BD3D
:1032900000080040B80100200C4810B50A49016040
:1032A0004FF4E1314160002181600C22C160C0E92E
:1032B00004128161C161FFF711FA002803D0BDE853
:1032C0001040FDF71FBF10BD003801400002002074
:1032D0000C4810B50A4901604FF4E131416000210A
:1032E00081600C22C160C0E904128161C161FFF7F5
:1032F000F5F9002803D0BDE81040FDF703BF10BD6D
:103300000048004048020020FEE7002000BF401CAB
:10331000C0B20A28FAD3704702480068C0F34020C0
:1033200070470000080C014010B5012000F06CF857
:10333000012000F05DF8FFF7EFFF0446002000F0E9
:1033400057F8204610BD70B50024012000F05CF84D
:1033500000256006040E012000F04AF8FFF7DCFFAC
:1033600008B144F00104002000F042F86D1CEDB2F9
:10337000082DEED3204670BD10B500F045F80120B1
:1033800000F036F8002000F033F8BDE810400120CE
:1033900000F03AB870B505460024E80900F034F8AA
:1033A0006806050E012000F023F8002000F020F848
:1033B000641CE4B2082CF0D370BD10B5012000F0FD
:1033C00023F8012000F014F8002000F01DF8BDE8FB
:1033D0001040002000F00CB810B5002000F014F8E8
:1033E000012000F005F8BDE81040012000F00CB805
:1033F0004FF4807108B1034801E00248001D0160EC
:10340000FFF783BF100C01404FF4007108B103486F
:1034100001E00248001D0160FFF777BF100C01407A
:10342000FEE77021072000F0DDB900E000BF401E7C
:10343000FCD27047E22000F0BFB9000010B50020B8
:1034400000F0AAF9012000F0AFF9002000F0FCF92B
:10345000002000F0BFF90520FDF7D6FF00F046F888
:1034600000283FD00C21002000F0BCF901210846C3
:1034700000F0B8F90121022000F0B4F90321084658
:1034800000F0B0F92F21042000F0ACF9282105202C
:1034900000F0A8F90621084600F0A4F90C2111203B
:1034A00000F0A0F900211C2000F09CF900211D2053
:1034B00000F098F905220C49102000F0A7F9052228
:1034C00009490A2000F0A2F9E12000F075F9E22094
:1034D00000F072F9FFF7A5FF00F04EF90220FDF7AA
:1034E00093FF012010BD0000E88100081CB50522F3
:1034F0000A49102000F08AF900200090019005226E
:103500006946102000F01EF8052204496846FCF7C1
:103510009EFE08B100201CBD01201CBDE8810008F2
:1035200010B50446002000F03FF904F01F0000F041
:10353000FBF8FF2000F0F8F80446012000F034F911
:10354000204610BD70B516460D00044615D000206B
:1035500000F02AF904F01F0000F0E6F8002405E06E
:10356000FF2000F0E1F82855641CE4B2B442F7D320
:10357000BDE87040012000F017B970BD70B50E466F
:10358000050014D0002000F00FF9612000F0CCF805
:10359000002405E0FF2000F0C7F82855641CE4B2C1
:1035A000B442F7D3BDE87040012000F0FDB870BD13
:1035B000FF2000F001B970B50C4605000CD05CB1DD
:1035C000202C09D8FFF7F4FF06461720FFF7A8FFC5
:1035D000710603D4C00701D0002070BD21462846E3
:1035E000FFF7CCFF4021072000F0FCF8012070BD60
:1035F0008AB0002518216846FCF709FE0027012043
:103600008DF81000B846374C04F0CEF806469DB948
:103610004FF47A794FEA0807FFF710FF050023D02F
:1036200000F06CF83746022300226946E06903F097
:10363000B5FD2DA001F0A0FB0C2106A8FFF7BBFFF4
:1036400068B3694606A800F089FD30B30223002262
:103650006946059FA06903F0A1FD02230022694687
:10366000E06903F09BFD1AE08DF8117020788DF869
:1036700010000596022300226946A06903F08EFD22
:10368000022300226946E06903F088FD484603F002
:103690008BFA04F089F80646BEE7FFF7CBFE04F08C
:1036A00083F8C01BB0F5FA7F18D98DF81180217806
:1036B0008DF81010CDF80080CDF80480CDF808808A
:1036C000CDF80C80022300226946A06903F066FD54
:1036D000022300226946E06903F060FD052003F043
:1036E00063FA91E78C0000206E726632346C3031E0
:1036F0002C72785F72656164790D0A0010B5002044
:1037000000F04AF80020FFF70BFF40F00301002013
:1037100000F068F8FFF785FEE22000F04DF8BDE804
:103720001040012000F038B870B5124E0446002554
:10373000E00900F04FF86006040E0420FFF775FE64
:10374000012000F081F80420FFF76FFE08213046C9
:10375000FDF75CFF012801D144F00104002000F0D6
:1037600073F80420FFF761FE6D1CEDB2082DDFD366
:10377000204670BD0008014010B5002000F00CF894
:103780000020FFF7CDFE00F0FE0040F00201BDE892
:103790001040002000F026B8024680210148FDF7C5
:1037A00042BF000000080140024640210148FDF7E9
:1037B0003ABF00000008014010B504460020FFF7A2
:1037C000F3FF2046FFF7B0FF04460120FFF7ECFFB0
:1037D000204610BD024610210148FDF724BF00001D
:1037E0000008014070B504460D460020FFF7DCFFDD
:1037F00004F01F0040F02000FFF796FF2846FFF777
:1038000093FFBDE870400120FFF7CEBF70B51646AC
:103810000D00044616D00020FFF7C6FF04F01F007D
:1038200040F02000FFF780FF002404E0285DFFF750
:103830007BFF641CE4B2B442F8D3BDE870400120C1
:10384000FFF7B2BF70BD0000024620210148FDF71E
:10385000EABE00000008014070B50024002104F118
:10386000B00000F0E5F90021084600F0E1F9002180
:10387000102000F0DDF900250121002000F0D8F92A
:103880006D1CEDB2802DF7D3641CE4B2082CE5D397
:1038900070BD000030B585B0002002904C488169B1
:1038A00041F00801816180694FF4404400F0080054
:1038B00004900120CDE900400220464D0390694666
:1038C0002846FDF7B3FD012221462846FDF7ABFE51
:1038D000C82003F069F90021AE2000F0A9F9002109
:1038E000084600F0A5F90021102000F0A1F9002100
:1038F000402000F09DF90021812000F099F900217D
:10390000CF2000F095F90021A12000F091F90021CD
:10391000C82000F08DF90021A62000F089F90021CF
:10392000A82000F085F900213F2000F081F9002156
:10393000D32000F07DF90021084600F079F900213C
:10394000D52000F075F90021F02000F071F9002178
:10395000D92000F06DF90021F12000F069F9002173
:10396000DA2000F065F90021122000F061F9002151
:10397000DB2000F05DF90021402000F059F9002122
:10398000202000F055F90021022000F051F900211B
:103990008D2000F04DF90021142000F049F900219C
:1039A000A42000F045F90021A62000F041F90021F3
:1039B000AF2000F03DF90021AF2000F039F9FFF70A
:1039C0004BFF0021084600F007F805B030BD0000AD
:1039D000001002400010014010B50A4604460021C4
:1039E00002F1B00000F024F9102040EA1410002188
:1039F00000F01EF904F00F00BDE81040002100F0B7
:103A000017B900002DE9F041203A00240D46804608
:103A1000D7B27F2803D900208D1C8046EDB22946FD
:103A2000FFF7DAFF0F4E00BF04EB07100121305CF7
:103A300000F0FEF8641CE4B2082CF5D36D1CE9B26A
:103A40004046FFF7C9FF002404EB07103044012172
:103A5000007A00F0EDF8641CE4B2082CF4D3BDE861
:103A6000F0810000BE7B00087FB506460022684654
:103A7000202419B18B5C0BB1835400E08454521C98
:103A8000D2B20F2AF5D300208DF80F006A463146D6
:103A900000F016F80024301908280CD2C1B27820A2
:103AA000FFF79AFF78250121002000F0C1F86D1C76
:103AB000EDB2802DF7D3641CE4B2022CEBD37FBDB2
:103AC0002DE9F04117460E46044600250CE031462C
:103AD0002046FFF797FF0834E4B2782C02D900247F
:103AE000B61CF6B26D1CEDB27A5D002AEFD1BDE8CE
:103AF000F08100009AB0142114A8FCF788FB002084
:103B0000119012901390182104A8FCF780FBFFF786
:103B1000C1FEFFF7A1FE01208DF8200003F044FE56
:103B2000A0F19604304D0B9003F03EFE06460022B5
:103B300014A9686803F040FC1698FCF7B1FDCDE9C4
:103B400000012AA214210CA801F09CFA0CA9002063
:103B5000FFF78AFF301B962841D33446002211A973
:103B6000286903F029FC002204A9E86903F024FC79
:103B700028788DF820001298FCF792FD06460F4633
:103B80001198FCF78DFD8DE8C3001BA214210CA831
:103B900001F078FA0CA90220FFF766FF0798FCF7FE
:103BA0007FFD06460F460498FCF77AFD8DE8C300BA
:103BB00016A214210CA801F065FA0CA90420FFF745
:103BC00053FF9DF8220000909DF8203014A214218C
:103BD0000CA801F057FA0CA90620FFF745FF322187
:103BE0000BA803F007F89FE78C000020416E673AAE
:103BF000252B30372E326600413A252B342E316684
:103C000020423A252B342E31660000004C563A25CE
:103C10002B342E31662052483A252B342E31660043
:103C200052756E3A25752053573A253032580000A8
:103C3000C0B209B101F00FBA01F0F6B970B504468F
:103C400001611546C068FCF790FB06466061294695
:103C5000A068FCF790FB054631462068FCF78BFB1B
:103C60002946FCF730FBFCF702FD2063E16A88423D
:103C700002DC4942884200DA2163A661206B70BDF4
:103C800094B000250295039518210BA80495FCF724
:103C9000BEFA2C46142106A8FCF7B9FA002601202A
:103CA000DFF85491DFF854A1DFF854B18DF83C00EF
:103CB0004FF0FF38424606A94F46D9F80C0003F0F2
:103CC0007BFB01287DD103F06FFD0190002202A94A
:103CD000786903F071FB00220BA9B86903F06CFB53
:103CE0003F789DF83D0060B110990198401AB0F5F9
:103CF000FA7F06D80B994348CAF800100E99016064
:103D000005E040488DF83D50CAF800500560761C2B
:103D1000F6B2062E40D3DDE902010026FCF7D3FA05
:103D20004146FCF798FB0190DAF80000364920F094
:103D300000405446884210DC0198344920F000408D
:103D400088420ADC3249E069FCF715FBE061314941
:103D500020F00040884200DCE5612848019900F02D
:103D600063F82D4904460591FCF7D4FC01D2059C6B
:103D700005E02A482146FCF7CDFC00D2274CCBF8C1
:103D80000C40DDE90201FCF7F0FA01461D4800F0A5
:103D90001BFDFCF76CFC044637B1214908988842AA
:103DA00002DC2049884214D90021084601F0C0F8FD
:103DB000124800F0DFF8134800F0DCF8CBF80C50A4
:103DC00000E014E0CBF818502C460026CBF8305019
:103DD0000DE001460A48099AFFF730FF424204EB22
:103DE000D47102EB6100A2EB610101F0A1F80520A2
:103DF00002F0DAFE5EE700008C000020084600209A
:103E0000704600203C4600200AD7A33D9A99193EEF
:103E10006666663FCDCC4C3D0000A0410000A0C1CD
:103E200000002042000020C22DE9F0418846416890
:103E30000446244F0D462448FCF79DFA06464146A9
:103E40003846FCF798FA3146FCF73DFA06466060C2
:103E500031462068FCF789FA20F000476061294666
:103E60003046FCF782FA616A0546B1F5000F03DBC4
:103E70003846FCF745FC08D86169E069FCF723FA8D
:103E8000E061216AFEF74EFEE06129462069FCF7F9
:103E900072FA0646E169E068FCF76DFA0546616969
:103EA000A068FCF768FA2946FCF70DFA3146FCF7E2
:103EB0005CFA2063E16AFEF735FE20636169A16167
:103EC000BDE8F0819A99993E3333333F1E49002073
:103ED000C8600861486188611C4AC861C1E908027C
:103EE0001B4B8862C1E900301A4B8B604FF47A7328
:103EF000C1E90B306839184B086048604861886137
:103F0000C1E907034FF07F53C1E90930134B8B60C0
:103F1000134BCB60134B0B61C1E90B20343101F122
:103F20001C0C0860486048610F4A104B88618CE89F
:103F30000D000F4B8B6088624FF07C53C1E903305A
:103F4000C1E90B2070470000704600200000A0412E
:103F50000000144233333340000048446666E640B4
:103F60000AD7233D000090410000FA4300002041A1
:103F70000000C842002805D00021416041618161F4
:103F8000C16101637047000010B5002214210120B7
:103F900003F069F81949002208601421012003F098
:103FA00062F81749002208600C21012003F05BF839
:103FB0001449002208600C21012003F054F8124932
:103FC000002208601821012003F04DF80F4900225B
:103FD00008601821012003F046F80D49002208600E
:103FE0006421042003F03FF80A49002208606021A0
:103FF000042003F038F80849086010BD9000002044
:10400000980000209C000020A0000020A4000020B8
:10401000A8000020AC0000209400002070B50D46E0
:104020004FF48051884200D90846A5F17E51B1F184
:10403000C06F01D34FF08A45FCF703FB2946FCF71C
:1040400094F912490446884201D384F00040104A92
:10405000904201DC002070BD0E4E8C4205D22946F4
:104060004FF08B40FCF781F9054631462046FCF7BE
:1040700082F92946FCF7B1F9B04201DD304670BD46
:1040800005498842FBD9084670BD000000008080C9
:104090000000484200004040000040C02DE9F041CF
:1040A00004464FF480501D4688461646844200D987
:1040B0000446B5F5000F00DA274DB8F17E5F08DB46
:1040C00041461046FCF71CFB03D94FF08B47BE421C
:1040D00006DB2046BDE8F0414FF08A41FFF79EBF66
:1040E0002046FCF7AEFA04464146FCF713FB07D81E
:1040F00020463146FCF704FB02D80020BDE8F081E1
:1041000020464146FCF7FCFA08D220464146FCF71F
:104110002CF92946FCF72FF941460CE03146384688
:10412000FCF723F9074620463146FCF71EF92946DD
:10413000FCF721F93946FCF750F904462946FCF70B
:10414000E9FA06D385F0004005462146FCF7E2FA7D
:1041500000D22C462046D1E7000040402DE9F04730
:104160000C4690B18CB10178A5290ED10B27002304
:104170004FEA030110F801C0491CC9B28CEA0303DD
:10418000B942F7D3C17A8B4202D00020BDE8F08754
:104190004178B0F802C061F30F2581886CF30F02FB
:1041A00061F31F42C1881E4F61F30F060189807AB7
:1041B00061F31F46904660F3070541074FF0010980
:1041C00001D5484602E0000701D500203870DFF82D
:1041D00058A0144B524615496046FFF75FFF206018
:1041E0004FEA18404FF08A484146FFF717FF6060DA
:1041F000B0B24146FFF712FFA060300C0C4B0D4AE5
:104200005146FFF74BFFE0603878207484F8119036
:10421000A574280AE07403F0C7FA60610120B5E7CD
:104220008C0000200000204000C00F450080ED44BD
:1042300000004040008022451CB5844F844C854DD1
:10424000DFF814824FF0FF394A468449386A03F098
:10425000B3F80128F8D182A18048FCF705F80600E0
:10426000F2D080A1FBF7E5FF002857D07EA13046B1
:10427000FBF7DFFF00285AD07EA13046FBF7D9FFBD
:10428000002864D07DA13046FBF7D3FF0028DBD1A6
:1042900073A1FBF7E9FF064671A10020FBF7E4FFDD
:1042A00082466FA10020FBF7DFFF83466CA1002050
:1042B000FBF7DAFF0090002EC6D0BAF1000FC3D092
:1042C000BBF1000FC0D000980028BDD03046FBF7EE
:1042D000EDFF01905046FBF7E9FF82465846FBF799
:1042E000E5FF06460098FBF7E1FF83465046FCF7E2
:1042F0009FF96549FCF771F828603046FCF798F99A
:104300006149FCF76AF8C8F8000033465246CDF818
:1043100000B05EA0019900F02FFD95E750A10020AC
:10432000FBF7A2FF4EA10020FBF79EFF8CE74CA1FC
:104330000020FBF799FF4AA10020FBF795FF00281A
:1043400082D001F0AFFDFCF7BEF9E0607CE744A14C
:104350000020FBF789FF824641A10020FBF784FF84
:104360000646BAF10000D8D0002ED6D04DA1FBF7FA
:1043700060FF60B34DA15046FBF75BFF98B34DA1C2
:104380005046FBF756FF00283AD04BA15046FBF7AA
:1043900050FF002840D049A15046FBF74AFF0028B3
:1043A00046D047A15046FBF744FF0028B5D1304620
:1043B00001F078FDFCF787F9C8F80C00FCF770F9FC
:1043C00002460B463FA000BF00F0D6FC3CE730465B
:1043D00001F068FDFCF777F92060FCF761F902460F
:1043E0000B463CA0F0E7FFE7304601F05BFDFCF731
:1043F0006AF9A060FCF754F902460B463AA0E3E7DD
:10440000304601F04FFDFCF75EF9A860FCF748F973
:1044100002460B4639A0D7E7304601F043FDFCF7D2
:1044200052F9E860FCF73CF902460B4637A0CBE7AF
:10443000304601F037FDFCF746F9C8F80800FCF7F4
:104440002FF902460B4635A0BEE700008C00002085
:1044500070460020084600203C46002040450020D1
:104460002C0000006B6579007A686F6E677A686966
:1044700000000000736C6964657200006A6F7973F4
:104480007469636B000000000000C8416A6F7973B3
:104490007469636B2C25642C25642C25642C25649D
:1044A0000D0A0000566563746B70000056656374F6
:1044B0006B640000536B7000536B6900546B7000A9
:1044C000546B6900736C696465722C546B692C259C
:1044D000660D0A00736C696465722C566563746BB3
:1044E000702C25660D0A0000736C696465722C5689
:1044F0006563746B642C25660D0A0000736C696437
:1045000065722C536B702C25660D0A00736C696400
:1045100065722C536B692C25660D0A00736C6964F7
:1045200065722C546B702C25660D0A00064D4FF4F5
:1045300000544FF4FA7621462846FDF76CF83046D1
:1045400001F020FDF7E700000010014010B55020F9
:1045500080F31188BFF34F8FBFF36F8F03F02AF9F9
:1045600018B104494FF080500860002080F3118892
:1045700010BD000004ED00E030B58FB02821684682
:10458000FBF745FE14210AA8FBF741FE01210804B0
:10459000CDE900100024029402250491CDE90750D2
:1045A0004FF4E01009906846FDF70EFA08B172B6B4
:1045B000FEE70F20CDE90A054FF48060CDE90C40FD
:1045C00002210AA80E94FDF703F9002801D072B663
:1045D000FEE70FB030BD70470148FDF731BD000068
:1045E000700100200148FDF72BBD000018030020DA
:1045F0000148FDF725BD0000B8010020F0B50268B4
:10460000164B174C174D4FF08047984205D0B842D3
:1046100003D0A04201D0A84203D122F070064A681C
:104620003243984205D0B84203D0A04201D0A842FC
:1046300003D122F44074CA6822434C6922F08002FC
:10464000224302608A68C2620A688262984201D18B
:104650000969016301214161F0BD0000002C0140A6
:10466000000400400008004010B501F01F030121C4
:10467000046A99408C430462016A9A4011430162C2
:1046800010BD000030B5036A026A22F00102026226
:104690004268846924F073050C682C4323F00205FA
:1046A0008B682B430A4DA8420BD123F00805CB6839
:1046B00022F440722B434D6923F0040315438A69A9
:1046C0002A434260846149684163036230BD00004F
:1046D000002C014030B5026A036A23F01003036224
:1046E000436884690D6824F4E64444EA05248D682F
:1046F00022F0200242EA05120B4DA8420ED1CD68ED
:1047000022F0800242EA05124D6923F4406343EA35
:1047100085038D6922F0400243EA8503436084618A
:1047200049688163026230BD002C014030B5036AE4
:10473000026A22F4807202624268C46923F4007340
:1047400024F073050C682C438D6843EA05230C4D57
:10475000A8420ED1CD6823F4006343EA05234D69D6
:1047600022F4405242EA05128D6923F4806342EA42
:1047700005124260C4614968C163036230BD000034
:10478000002C014030B5046A026A22F480520262B1
:104790004268C3690D6823F4E64343EA05238D6844
:1047A00024F4005444EA0534064DA84204D14D696E
:1047B00022F4804242EA85124260C3614968016482
:1047C000046230BD002C01402DE9F0410E46D0F8C6
:1047D000008004462F492E4F28F00040884211DC0B
:1047E0002D4926F0004088420CDC00262B49E06968
:1047F000FBF7C1FDE0612A4920F00040884201DC5E
:104800000020E06127486168FBF7B5FD05463146A9
:104810003846FBF7B0FD2946FBF755FD01466060C1
:104820004046FBF7A2FD6061616A20F00040B1F5EF
:10483000000F02DBFBF764FF08D86169E069FBF752
:1048400042FDE061216AFEF76DF9E061D4E905619E
:104850003046FBF78AFD2169FBF78DFD0546E169CE
:10486000E068FBF788FD07463146A068FBF783FD4B
:104870003946FBF728FD2946FBF725FD2063E16A51
:10488000FEF750F920636169A161BDE8F081000085
:104890009A99993E0AD7A33D8FC2F53D9A99593FFF
:1048A000CDCC4C3D3333333F10B5406A0021C18538
:1048B000C184FDF7DBFD10BD70B5446A2068406916
:1048C00094F84110C0F3C0100025212904D118B17B
:1048D000E584204600F08EF82068406994F8421084
:1048E000C0F38010222904D118B1E585204600F0DC
:1048F0005AF8606C40F0100060642046FDF7B6FD89
:1049000070BD10B50146406A096809684FF00002A1
:1049100089062ED4C28501680C3151E8003F23F48A
:10492000807341E80034002CF5D10168143151E85E
:10493000003F23F0010341E80034002CF5D1016869
:10494000143151E8003F23F0400341E80034002CCB
:10495000F5D1202180F84210016B012909D10168AD
:104960000C3151E8003F23F0100341E80034002CE3
:10497000F5D14263016B012902D0FDF78DFF10BD17
:10498000818DFDF73AFD10BD10B5406A01214163EC
:10499000016B012902D0FDF780FF10BD818D490810
:1049A000FDF72BFD10BD01680C3151E8002F22F4FA
:1049B000907241E80023002BF5D10168143151E8D1
:1049C000002F22F0010241E80023002BF5D1016BFA
:1049D000012909D101680C3151E8002F22F01002A1
:1049E00041E80023002BF5D1202180F8421000215E
:1049F0000163704701680C3151E8002F22F0C002BA
:104A000041E80023002BF5D1202180F841107047A8
:104A100008B590F84210222901D0022008BD826812
:104A20004FF480539A4201D1016921B1816A9A42BF
:104A30001BD04AB10AE00268816A5268C2F30802D8
:104A40000A80816A891C08E0026972B102685268B2
:104A500002F07F020A70816A491C8162C18D491E81
:104A60000904090CC18503D01BE002685268F1E714
:104A70000168CA6822F02002CA600168CA6822F48C
:104A80008072CA6001684A6922F001024A612021ED
:104A900080F8421000214163026B012A03D0FDF728
:104AA000FBFE002008BD016301680C3151E8002FB6
:104AB00022F0100241E80023002BF5D101680A68BA
:104AC000D20602D50A6849680091818DFDF795FCF0
:104AD000E7E7000070B5044600680169E26821F468
:104AE0004051114301612169A0680843616908438D
:104AF0002168CA6841F20C639A430243CA60206885
:104B00004169A26921F44071114341611E49206845
:104B1000884202D1FCF722FF01E0FCF70FFF00EB17
:104B2000C00101EB0012606864218000B2FBF0F369
:104B3000B3FBF1F36FF018067343B2FBF0F5B2FB71
:104B4000F0F605EB8305322303EB0515B5FBF1F514
:104B5000B6FBF1F605F0F00505EB0615B2FBF0F635
:104B6000B2FBF0F0B0FBF1F06FF01802504306EB2F
:104B7000800003EB0010B0FBF1F0216800F00F00A3
:104B80002844886070BD00000038014038B581625B
:104B900004468285002013466064222284F8422065
:104BA000E56B1B4AAA62E56B1A4AEA62E56B1A4A90
:104BB0002A63E26B50630A462168E06B091DFCF72B
:104BC000EBFB2068016840680090206948B12068CC
:104BD0000C3050E8001F41F4807140E80012002AB8
:104BE000F5D12068143050E8001F41F0010140E881
:104BF0000012002AF5D12068143050E8001F41F05F
:104C0000400140E80012002AF5D1002038BD000024
:104C10000349000889490008B94800082DE9F04116
:104C2000984617460E460446069D27E0681C25D088
:104C30002DB1FCF7FDFCA0EB0800A8421ED92068AE
:104C40000C3050E8001F21F4D07140E80012002A17
:104C5000F5D12068143050E8001F21F0010140E830
:104C60000012002AF5D1202084F8410084F8420087
:104C7000002084F840000320BDE8F081206800682F
:104C800036EA000004D00020B842CFD00020F3E77D
:104C90000120F9E710B5044800F014F8BDE8104011
:104CA0000148FDF7E5BB00000002002010B50448F4
:104CB00000F008F8BDE810400148FDF7D9BB00003E
:104CC000480200202DE9FC4105004FF00000009053
:104CD00048D028680168C943C90643D401684068C0
:104CE00001902846FDF78AFBE86B006840681E4E7D
:104CF00080B2C0F1640081B2306850B3022928D973
:104D00001A4C20785B2824D1601810F8010C5D281B
:104D10001FD1891E8FB2642F00D3632764211448EA
:104D2000FBF775FA3A46611C1148FBF757FA002366
:104D30006A460F49306802F0E1FA012809D100986B
:104D400038B10C494FF080500860BFF34F8FBFF36C
:104D50006F8F64210548FBF75AFA642203492846FD
:104D6000FDF78CFDBDE8FC81AC000020C4000020F4
:104D7000A445002004ED00E00FB430B5B1B0349D7F
:104D8000002D20D0124CA06800281CD0602168465D
:104D9000FBF73DFA35AB2A466021684600F08AF9F8
:104DA00000231A466946A06802F0F8F901280AD0E3
:104DB000002218A9A06802F0FFFA00231A466946EB
:104DC000A06802F0EBF931B030BC5DF814FB0000D4
:104DD0008C0000204FF0FF350A4C98B02E0C2A466C
:104DE0006946A06802F0E8FA0128F8D16846FBF7A6
:104DF00019FA0204120CF2D0334669460248FDF754
:104E00004DFDECE78C00002000020020FEE70000D2
:104E100010B502F075F807490860012002F018F992
:104E20000549086005490020086005490860486098
:104E3000886010BDB0000020B4000020B800002041
:104E4000204500200EB5DFF8CCB0334E334FDFF8ED
:104E5000D080DFF8D0A06FF0010900BFDBF8003090
:104E6000586A02B230480168496A0DB2002159629D
:104E7000006841621046FBF7DBFB3146FBF77BFA2B
:104E80003946FBF7AAFA4146FBF7A7FA4946FBF772
:104E9000E2FA04462846FBF7CBFB3146FBF76BFAF8
:104EA0003946FBF79AFA4146FBF797FA4946FBF772
:104EB000D2FA014684F00040CDE9000102F074FC12
:104EC0000290DAF82800544670B14FF0FF3102F03A
:104ED0000FFB16489DE80E0080E80E0000231A46DE
:104EE0001946A06A02F05AF9606A10B1012102F075
:104EF00015F8022300226946206902F04FF90223C7
:104F000000226946606902F049F90A2001F04CFE6E
:104F1000A4E70000700100200000C8420000A0418A
:104F2000000050418C000020B801002020450020E6
:104F30002DE9F0410E464FF47A742146FDF704FE48
:104F4000054621463046FDF7FFFD1E4E1E4F044626
:104F50004FF40051002D0BDB00223046FCF763FBC1
:104F6000012211463046FCF75EFB386805640BE011
:104F700001223046FCF757FB002201213046FCF7A6
:104F800052FB396868420864002C0DDB01220821BD
:104F90003046FCF748FB002202213046FCF743FB79
:104FA00038684463BDE8F081002208213046FCF7F0
:104FB0003AFB012202213046FCF735FB396860429A
:104FC0004863EFE7000C0140280100202DE9F04183
:104FD000144F04464FF48046002231463846FCF711
:104FE00022FB00254FF4004804F08000802816D0F2
:104FF000002241463846FCF716FB6006040E0122EB
:1050000031463846FCF70FFB002231463846FCF7A4
:105010000AFB6D1CEDB2082DE6D3BDE8F08101223C
:10502000E7E700000010014010B50446FDF786FCDC
:105030007820FFF7CBFFFDF7B5FC0020FFF7C6FF98
:10504000FDF7B0FC2046FFF7C1FFFDF7ABFCBDE864
:105050001040FDF78FBC10B50446FDF76FFC7820BB
:10506000FFF7B4FFFDF79EFC4020FFF7AFFFFDF711
:1050700099FC2046FFF7AAFFFDF794FCBDE810401D
:10508000FDF778BC0FB41CB50246002007AC002920
:105090000BD0491ECDE90021054B6A4621460698F2
:1050A00000F08EF9009A002111701CBC5DF814FB11
:1050B000EF5A00087CB5044600201D46164600291C
:1050C0000BD0491ECDE90041044B6A4629463046C3
:1050D00000F076F9009A002111707CBDEF5A0008AB
:1050E000490050EAC12018BF04204A0D18BF40F003
:1050F000010040F2FF72B2EB515F08BF40F00200C6
:10510000012808BF052070470907090E002804DBA5
:1051100000F1E02080F80014704700F00F0000F16B
:10512000E02080F8141D704700487047C000002040
:105130002DE9F0414F1E00EBC7010446D1E9000103
:1051400015461E4637F006020DD02A463346FBF7B9
:105150008EF97F1E04EBC703D3E90023FBF746FC5F
:1051600037F00602F1D1022F25D0042F13D0062FDD
:1051700018BFBDE8F0812A463346FBF778F9D4E939
:105180000A23FBF733FC2A463346FBF770F9D4E9D0
:105190000823FBF72BFC2A463346FBF768F9D4E9D2
:1051A0000623FBF723FC2A463346FBF760F9D4E9D4
:1051B0000423FBF71BFC2A463346FBF758F9D4E9D6
:1051C0000223FBF713FC2A463346FBF750F9D4E9D8
:1051D0000023BDE8F041FBF709BC0122FBF7ADBCA1
:1051E000FBF704BC024A00201107FBF7A6BC000035
:1051F00001FDFFFF0148006870470000C00000206B
:1052000002E008C8121F08C1002AFAD1704770478F
:10521000002001E001C1121F002AFBD170470000ED
:105220000149086070470000C00000202DE9FF5FC1
:1052300082B00021DDE90430020DDDF840B0034307
:1052400018D044F61050A2F2FF32424315141198C0
:1052500001281FD0A5EB0B00401C5FEA000A4FF0AD
:1052600000064E4FDFF83891B046504615D5CAF1CA
:10527000000413E0119801244AA3012801D16FEA28
:105280000B010298119AC0E90031C0E9024206B050
:10529000BDE8F09FCBF10000DFE704460021404A63
:1052A000491842EB0450CDE9001012E0E00707D0A6
:1052B00032463B4640464946FBF7D9F88046894688
:1052C00032463B4610461946FBF7D1F806460F46D4
:1052D0006410002CEAD1DDE90401DDE90023BAF114
:1052E000000F06DAFBF7C3F842464B46FBF7BFF860
:1052F00005E0FBF72EF942464B46FBF72AF9044638
:105300000E460022284BFBF747FC03D84FF0FF3036
:10531000014607E00022254B20463146FBF766FB9D
:10532000FBF722FC102409E0002C0ADB0A220023F0
:10533000FBF710FA039B30321A55641E50EA010243
:10534000F2D1641C039AC4F111031444119A012A86
:1053500003D0012208430DD10AE0084304D0002005
:105360004FF0110B119072E7A3EB0B056D1E0DE0D2
:105370005B4504DD4FF0000205F1010504E003DAAE
:105380004FF00002A5F10105002AECD00298119916
:10539000C0E90231C0E9004579E70000000014408F
:1053A0000000F03F300000000000F0430000E03F4C
:1053B00030380A2801D201207047002070470000D1
:1053C0002DE9FF4F95B09B468946064600250FE222
:1053D000252877D100242746F84A0121059400E0CA
:1053E000044316F8013F203B01FA03F01042F7D1C5
:1053F00030782A2811D06FF02F033078A0F13002D6
:10540000092A16D8059A44F0020402EB820203EB43
:1054100042021044761C0590EFE759F8042B0592E0
:10542000002A03DA504244F40054059044F0020488
:10543000761C30782E2816D116F8010F44F004049B
:105440002A280DD06FF02F023078A0F13003092BFD
:1054500009D807EB870302EB4303C718761CF3E771
:1054600059F8047B761C30786C280FD006DC4C2869
:1054700017D068280DD06A2814D104E0742810D001
:105480007A280FD10DE044F400140AE044F48014AB
:1054900001E044F440147278824202D104F5801491
:1054A000761C761C307866280BD013DC582877D011
:1054B00009DC002875D04528F6D04628F4D04728C6
:1054C0001AD19DE118E0632835D0642879D0652889
:1054D00012D195E1702873D008DC6728F1D06928D3
:1054E0006FD06E280DD06F2806D1B5E073282CD070
:1054F000752875D0782874D05A46179990476D1C36
:1055000075E1C4F30250022809D003280DD0D9F860
:10551000001004280DD00D6009F1040967E1D9F8E5
:105520000010EA17C1E90052F6E7D9F800100D8023
:10553000F2E70D70F0E719F8041B8DF80010002059
:105540008DF80100EA46012003E059F804AB4FF062
:10555000FF3061074FF0000102D40DE008F10101B6
:105560008846B9420FDA8045F8DB1AF8081000299E
:10557000F4D108E008F1010188468142FADB1AF80B
:1055800008100029F6D105985B46A0EB08072146D4
:105590003846179A00F094FA284400EB080507E013
:1055A0004DE029E10DE01AF8010B5A461799904792
:1055B000B8F10108F7D25B4621463846179A13E145
:1055C00042E00A220092C4F302524FF0000A022A7B
:1055D00008D059F804CB032A4FEAEC710AD00DE049
:1055E00029E02AE009F1070121F00702F2E802C1EF
:1055F000914609E00FFA8CFC4FEAEC71042A03D1C2
:105600004FFA8CFC4FEAEC71002907DA0A460021B8
:10561000DCF1000C61EB02012D2202E0220504D531
:105620002B228DF80420012203E0E20701D0202282
:10563000F7E7904659E00A2102E010220DE0102120
:105640004FF0000A00910BE010224FF0000A44F0E6
:1056500004040827009203E008224FF0000A009299
:10566000C4F30252022A05D059F804CB0021032AC0
:1056700008D009E009F1070121F00702F2E802C1B0
:10568000914605E01FFA8CFC042A01D10CF0FF0CB6
:105690004FF00008220728D5702806D0009B83F021
:1056A000100353EA0A0305D00EE040228DF80420CF
:1056B000012208E05CEA010206D030228DF80420C5
:1056C0008DF8050002229046009B83F0080353EA00
:1056D0000A030AD15CEA010201D1620705D5302232
:1056E0008DF804204FF001087F1E582804D034A004
:1056F00003900EA802900DE036A0F9E753466046ED
:10570000009AFBF727F884460398825C0298401EB3
:10571000029002705CEA0100F0D1029806A9081A12
:1057200000F1200A600702D524F4803400E001274C
:10573000574502DDA7EB0A0000E0002000EB0A015C
:10574000009005984144401A0590E00306D45B465A
:105750002146179A059800F0B3F90544002706E0A2
:1057600001A85A46C05D179990476D1C7F1C47459C
:10577000F6DBE0030CD55B462146179A059800F04E
:105780009FF9054404E030205A46179990476D1C54
:105790000099481E00900029F5DC08E00298029963
:1057A0005A460078491C0291179990476D1CBAF12E
:1057B0000001AAF1010AF1DC65E1000009280100FD
:1057C0003031323334353637383961626364656677
:1057D0000000000030313233343536373839414239
:1057E000434445460000000000F058F90544761C8B
:1057F000307800287FF4ECAD19B02846BDE8F08F72
:10580000620700D4062709F1070222F0070CFCE822
:105810000223E14603F000485FEA080C02D00FF2D1
:10582000702C0DE05FEA045C02D50FF2682C07E0F3
:105830005FEAC47C02D00FF2602C01E0AFF2700C82
:105840004FF0FF3823F00043CDF850C065280CD04E
:1058500006DC452809D046281DD047283DD13DE02B
:10586000662818D067287ED138E00021112F01DB8F
:10587000112000E0781CCDE9000106A90EA8FFF771
:10588000D5FCDDE90F010E9A03910021009207F18A
:10589000010A04914DE04FF000400097CDE901105E
:1058A00006A90EA8FFF7C2FCDDE90F0203920E9BCA
:1058B00011990022DDF80CA00093049211B9791C13
:1058C00000EB010AB7EB0A0004D4C0F1FF3007F186
:1058D000010A0490AAEB0700019044E0012F00DACE
:1058E00001270021112F01DD112000E03846CDE90C
:1058F000000106A90EA8FFF799FCDDE90F010E9A39
:105900000391002104910092BA4621070CD4039917
:10591000514500DA8A46BAF1010F05DD009AAAF175
:105920000101515C302908D0B84202DA10F1040FAD
:1059300006DA0121CDE9011015E0AAF10101E9E73C
:10594000002805DC049901440491AAEB000102E05F
:10595000411C514500DD8A460499401A401C0190C3
:105960004FF000400290200704D40198504501DB1D
:10597000CDF8048000208DF84F0002980DF14F07FC
:10598000B0F1004F25D02B200E9002984FF0020866
:1059900000280CDA404202902D200E9007E00A21E8
:1059A0000298FAF7C1FE3031029007F8011DB8F1F4
:1059B0000001A8F10108F2DC02980028EFD1791E5D
:1059C0000E980870307800F0200040F0450007F88D
:1059D000020D12A8C01B00F107081498007800B14E
:1059E000012000EB0A01019801EBE07105984144A8
:1059F000401A401E0590E00306D45B462146179AE4
:105A0000059800F05DF805441498007818B15A46DE
:105A1000179990476D1CE00324D55B462146179AE1
:105A2000059800F04DF805441CE00498002807DBB9
:105A3000DDE90301884203DD0098405C179901E02D
:105A4000179930205A469047049805F10105401CEB
:105A500004900198401E019004D12E205A461799B7
:105A600090476D1CBAF10001AAF1010ADDDC05E0E6
:105A700017F8010B5A46179990476D1CB8F10001B1
:105A8000A8F10108F4DC5B462146179A0598ABE6BD
:105A90002D0000002B000000200000002DE9F04147
:105AA000044600251E461746880404D405E03946FE
:105AB0002020B0476D1C641EF9D52846BDE8F08152
:105AC0002DE9F041044600251E469046C80301D545
:105AD000302700E02027880404D505E041463846F9
